{
  "_format": "hh-sol-artifact-1",
  "contractName": "LxBWSCertificateAttendance",
  "sourceName": "contracts/LxBWSCertificateAttendance.sol",
  "abi": [
    {
      "anonymous": false,
      "inputs": [
        {
          "indexed": false,
          "internalType": "bytes32",
          "name": "hash",
          "type": "bytes32"
        },
        {
          "indexed": false,
          "internalType": "bool",
          "name": "exists",
          "type": "bool"
        },
        {
          "indexed": false,
          "internalType": "uint256",
          "name": "timestamp",
          "type": "uint256"
        }
      ],
      "name": "DocumentVerified",
      "type": "event"
    },
    {
      "anonymous": false,
      "inputs": [
        {
          "indexed": false,
          "internalType": "bytes32[]",
          "name": "hashes",
          "type": "bytes32[]"
        },
        {
          "indexed": false,
          "internalType": "uint256",
          "name": "timestamp",
          "type": "uint256"
        }
      ],
      "name": "DocumentsAdded",
      "type": "event"
    },
    {
      "inputs": [
        {
          "internalType": "bytes32[]",
          "name": "hashes",
          "type": "bytes32[]"
        }
      ],
      "name": "addDocuments",
      "outputs": [],
      "stateMutability": "nonpayable",
      "type": "function"
    },
    {
      "inputs": [
        {
          "internalType": "bytes32",
          "name": "hash",
          "type": "bytes32"
        }
      ],
      "name": "checkHash",
      "outputs": [
        {
          "internalType": "bool",
          "name": "",
          "type": "bool"
        }
      ],
      "stateMutability": "view",
      "type": "function"
    },
    {
      "inputs": [
        {
          "internalType": "bytes32",
          "name": "hash",
          "type": "bytes32"
        }
      ],
      "name": "verifyHash",
      "outputs": [
        {
          "internalType": "bool",
          "name": "",
          "type": "bool"
        }
      ],
      "stateMutability": "nonpayable",
      "type": "function"
    },
    {
      "inputs": [
        {
          "internalType": "bytes32[]",
          "name": "hashes",
          "type": "bytes32[]"
        }
      ],
      "name": "verifyHashes",
      "outputs": [
        {
          "internalType": "bool[]",
          "name": "results",
          "type": "bool[]"
        }
      ],
      "stateMutability": "view",
      "type": "function"
    }
  ],
  "bytecode": "0x6080604052348015600f57600080fd5b506107ae8061001f6000396000f3fe608060405234801561001057600080fd5b506004361061004c5760003560e01c8063017cc8cb14610051578063cff3a6b314610081578063d604d8d11461009d578063ef020f4a146100cd575b600080fd5b61006b600480360381019061006691906103cb565b6100fd565b60405161007891906104e2565b60405180910390f35b61009b600480360381019061009691906103cb565b6101cd565b005b6100b760048036038101906100b2919061053a565b6102ca565b6040516100c49190610576565b60405180910390f35b6100e760048036038101906100e2919061053a565b6102f3565b6040516100f49190610576565b60405180910390f35b60608282905067ffffffffffffffff81111561011c5761011b610591565b5b60405190808252806020026020018201604052801561014a5781602001602082028036833780820191505090505b50905060005b838390508110156101c657600080858584818110610171576101706105c0565b5b90506020020135815260200190815260200160002060009054906101000a900460ff168282815181106101a7576101a66105c0565b5b6020026020010190151590811515815250508080600101915050610150565b5092915050565b60005b8282905081101561028a576000801b8383838181106101f2576101f16105c0565b5b9050602002013503610239576040517f08c379a00000000000000000000000000000000000000000000000000000000081526004016102309061064c565b60405180910390fd5b6001600080858585818110610251576102506105c0565b5b90506020020135815260200190815260200160002060006101000a81548160ff02191690831515021790555080806001019150506101d0565b507fbcbff8a2484c88bd886c3b1ac9e60491264e92cd49c8bcb69c790c401ce702408282426040516102be93929190610700565b60405180910390a15050565b600080600083815260200190815260200160002060009054906101000a900460ff169050919050565b60008060008084815260200190815260200160002060009054906101000a900460ff1690507f855e1668a1df7ef6fc47d3d47c0b426e04a1f82a0e918815f04cfca4c15566d183824260405161034b93929190610741565b60405180910390a180915050919050565b600080fd5b600080fd5b600080fd5b600080fd5b600080fd5b60008083601f84011261038b5761038a610366565b5b8235905067ffffffffffffffff8111156103a8576103a761036b565b5b6020830191508360208202830111156103c4576103c3610370565b5b9250929050565b600080602083850312156103e2576103e161035c565b5b600083013567ffffffffffffffff811115610400576103ff610361565b5b61040c85828601610375565b92509250509250929050565b600081519050919050565b600082825260208201905092915050565b6000819050602082019050919050565b60008115159050919050565b61045981610444565b82525050565b600061046b8383610450565b60208301905092915050565b6000602082019050919050565b600061048f82610418565b6104998185610423565b93506104a483610434565b8060005b838110156104d55781516104bc888261045f565b97506104c783610477565b9250506001810190506104a8565b5085935050505092915050565b600060208201905081810360008301526104fc8184610484565b905092915050565b6000819050919050565b61051781610504565b811461052257600080fd5b50565b6000813590506105348161050e565b92915050565b6000602082840312156105505761054f61035c565b5b600061055e84828501610525565b91505092915050565b61057081610444565b82525050565b600060208201905061058b6000830184610567565b92915050565b7f4e487b7100000000000000000000000000000000000000000000000000000000600052604160045260246000fd5b7f4e487b7100000000000000000000000000000000000000000000000000000000600052603260045260246000fd5b600082825260208201905092915050565b7f496e76616c696420646f63756d656e7420686173680000000000000000000000600082015250565b60006106366015836105ef565b915061064182610600565b602082019050919050565b6000602082019050818103600083015261066581610629565b9050919050565b600082825260208201905092915050565b600080fd5b82818337505050565b6000610697838561066c565b93507f07ffffffffffffffffffffffffffffffffffffffffffffffffffffffffffffff8311156106ca576106c961067d565b5b6020830292506106db838584610682565b82840190509392505050565b6000819050919050565b6106fa816106e7565b82525050565b6000604082019050818103600083015261071b81858761068b565b905061072a60208301846106f1565b949350505050565b61073b81610504565b82525050565b60006060820190506107566000830186610732565b6107636020830185610567565b61077060408301846106f1565b94935050505056fea2646970667358221220fc17037f7a2248d2ff835e2c954ac3c08ea1bcb83ada07548f57e2d373426cd964736f6c634300081c0033",
  "linkReferences": {},
  "deployedLinkReferences": {}
}