{
	"data": {
		"bytecode": {
			"linkReferences": {},
			"object": "6080604052348015600e575f80fd5b5061088d8061001c5f395ff3fe608060405234801561000f575f80fd5b506004361061004a575f3560e01c8063017cc8cb1461004e578063cff3a6b31461007e578063d604d8d11461009a578063ef020f4a146100ca575b5f80fd5b61006860048036038101906100639190610440565b6100fa565b604051610075919061054d565b60405180910390f35b61009860048036038101906100939190610440565b6101c6565b005b6100b460048036038101906100af91906105a0565b61034d565b6040516100c191906105da565b60405180910390f35b6100e460048036038101906100df91906105a0565b610372565b6040516100f191906105da565b60405180910390f35b60608282905067ffffffffffffffff811115610119576101186105f3565b5b6040519080825280602002602001820160405280156101475781602001602082028036833780820191505090505b5090505f5b838390508110156101bf575f8085858481811061016c5761016b610620565b5b9050602002013581526020019081526020015f205f9054906101000a900460ff168282815181106101a05761019f610620565b5b602002602001019015159081151581525050808060010191505061014c565b5092915050565b60015f9054906101000a900473ffffffffffffffffffffffffffffffffffffffff1673ffffffffffffffffffffffffffffffffffffffff163373ffffffffffffffffffffffffffffffffffffffff1614610255576040517f08c379a000000000000000000000000000000000000000000000000000000000815260040161024c906106cd565b60405180910390fd5b5f5b8282905081101561030d575f801b83838381811061027857610277610620565b5b90506020020135036102bf576040517f08c379a00000000000000000000000000000000000000000000000000000000081526004016102b690610735565b60405180910390fd5b60015f808585858181106102d6576102d5610620565b5b9050602002013581526020019081526020015f205f6101000a81548160ff0219169083151502179055508080600101915050610257565b507fbcbff8a2484c88bd886c3b1ac9e60491264e92cd49c8bcb69c790c401ce70240828242604051610341939291906107e3565b60405180910390a15050565b5f805f8381526020019081526020015f205f9054906101000a900460ff169050919050565b5f805f808481526020019081526020015f205f9054906101000a900460ff1690507f855e1668a1df7ef6fc47d3d47c0b426e04a1f82a0e918815f04cfca4c15566d18382426040516103c693929190610822565b60405180910390a180915050919050565b5f80fd5b5f80fd5b5f80fd5b5f80fd5b5f80fd5b5f8083601f840112610400576103ff6103df565b5b8235905067ffffffffffffffff81111561041d5761041c6103e3565b5b602083019150836020820283011115610439576104386103e7565b5b9250929050565b5f8060208385031215610456576104556103d7565b5b5f83013567ffffffffffffffff811115610473576104726103db565b5b61047f858286016103eb565b92509250509250929050565b5f81519050919050565b5f82825260208201905092915050565b5f819050602082019050919050565b5f8115159050919050565b6104c8816104b4565b82525050565b5f6104d983836104bf565b60208301905092915050565b5f602082019050919050565b5f6104fb8261048b565b6105058185610495565b9350610510836104a5565b805f5b8381101561054057815161052788826104ce565b9750610532836104e5565b925050600181019050610513565b5085935050505092915050565b5f6020820190508181035f83015261056581846104f1565b905092915050565b5f819050919050565b61057f8161056d565b8114610589575f80fd5b50565b5f8135905061059a81610576565b92915050565b5f602082840312156105b5576105b46103d7565b5b5f6105c28482850161058c565b91505092915050565b6105d4816104b4565b82525050565b5f6020820190506105ed5f8301846105cb565b92915050565b7f4e487b71000000000000000000000000000000000000000000000000000000005f52604160045260245ffd5b7f4e487b71000000000000000000000000000000000000000000000000000000005f52603260045260245ffd5b5f82825260208201905092915050565b7f4f6e6c7920746865206f7267616e697a65722063616e20706572666f726d20745f8201527f68697320616374696f6e00000000000000000000000000000000000000000000602082015250565b5f6106b7602a8361064d565b91506106c28261065d565b604082019050919050565b5f6020820190508181035f8301526106e4816106ab565b9050919050565b7f496e76616c696420646f63756d656e74206861736800000000000000000000005f82015250565b5f61071f60158361064d565b915061072a826106eb565b602082019050919050565b5f6020820190508181035f83015261074c81610713565b9050919050565b5f82825260208201905092915050565b5f80fd5b82818337505050565b5f61077b8385610753565b93507f07ffffffffffffffffffffffffffffffffffffffffffffffffffffffffffffff8311156107ae576107ad610763565b5b6020830292506107bf838584610767565b82840190509392505050565b5f819050919050565b6107dd816107cb565b82525050565b5f6040820190508181035f8301526107fc818587610770565b905061080b60208301846107d4565b949350505050565b61081c8161056d565b82525050565b5f6060820190506108355f830186610813565b61084260208301856105cb565b61084f60408301846107d4565b94935050505056fea2646970667358221220208950742bfa99444ba2805c39a88c7d9ac45d288592ec7365141edbb0d2fe6a64736f6c634300081a0033",
			"opcodes": "PUSH1 0x80 PUSH1 0x40 MSTORE CALLVALUE DUP1 ISZERO PUSH1 0xE JUMPI PUSH0 DUP1 REVERT JUMPDEST POP PUSH2 0x88D DUP1 PUSH2 0x1C PUSH0 CODECOPY PUSH0 RETURN INVALID PUSH1 0x80 PUSH1 0x40 MSTORE CALLVALUE DUP1 ISZERO PUSH2 0xF JUMPI PUSH0 DUP1 REVERT JUMPDEST POP PUSH1 0x4 CALLDATASIZE LT PUSH2 0x4A JUMPI PUSH0 CALLDATALOAD PUSH1 0xE0 SHR DUP1 PUSH4 0x17CC8CB EQ PUSH2 0x4E JUMPI DUP1 PUSH4 0xCFF3A6B3 EQ PUSH2 0x7E JUMPI DUP1 PUSH4 0xD604D8D1 EQ PUSH2 0x9A JUMPI DUP1 PUSH4 0xEF020F4A EQ PUSH2 0xCA JUMPI JUMPDEST PUSH0 DUP1 REVERT JUMPDEST PUSH2 0x68 PUSH1 0x4 DUP1 CALLDATASIZE SUB DUP2 ADD SWAP1 PUSH2 0x63 SWAP2 SWAP1 PUSH2 0x440 JUMP JUMPDEST PUSH2 0xFA JUMP JUMPDEST PUSH1 0x40 MLOAD PUSH2 0x75 SWAP2 SWAP1 PUSH2 0x54D JUMP JUMPDEST PUSH1 0x40 MLOAD DUP1 SWAP2 SUB SWAP1 RETURN JUMPDEST PUSH2 0x98 PUSH1 0x4 DUP1 CALLDATASIZE SUB DUP2 ADD SWAP1 PUSH2 0x93 SWAP2 SWAP1 PUSH2 0x440 JUMP JUMPDEST PUSH2 0x1C6 JUMP JUMPDEST STOP JUMPDEST PUSH2 0xB4 PUSH1 0x4 DUP1 CALLDATASIZE SUB DUP2 ADD SWAP1 PUSH2 0xAF SWAP2 SWAP1 PUSH2 0x5A0 JUMP JUMPDEST PUSH2 0x34D JUMP JUMPDEST PUSH1 0x40 MLOAD PUSH2 0xC1 SWAP2 SWAP1 PUSH2 0x5DA JUMP JUMPDEST PUSH1 0x40 MLOAD DUP1 SWAP2 SUB SWAP1 RETURN JUMPDEST PUSH2 0xE4 PUSH1 0x4 DUP1 CALLDATASIZE SUB DUP2 ADD SWAP1 PUSH2 0xDF SWAP2 SWAP1 PUSH2 0x5A0 JUMP JUMPDEST PUSH2 0x372 JUMP JUMPDEST PUSH1 0x40 MLOAD PUSH2 0xF1 SWAP2 SWAP1 PUSH2 0x5DA JUMP JUMPDEST PUSH1 0x40 MLOAD DUP1 SWAP2 SUB SWAP1 RETURN JUMPDEST PUSH1 0x60 DUP3 DUP3 SWAP1 POP PUSH8 0xFFFFFFFFFFFFFFFF DUP2 GT ISZERO PUSH2 0x119 JUMPI PUSH2 0x118 PUSH2 0x5F3 JUMP JUMPDEST JUMPDEST PUSH1 0x40 MLOAD SWAP1 DUP1 DUP3 MSTORE DUP1 PUSH1 0x20 MUL PUSH1 0x20 ADD DUP3 ADD PUSH1 0x40 MSTORE DUP1 ISZERO PUSH2 0x147 JUMPI DUP2 PUSH1 0x20 ADD PUSH1 0x20 DUP3 MUL DUP1 CALLDATASIZE DUP4 CALLDATACOPY DUP1 DUP3 ADD SWAP2 POP POP SWAP1 POP JUMPDEST POP SWAP1 POP PUSH0 JUMPDEST DUP4 DUP4 SWAP1 POP DUP2 LT ISZERO PUSH2 0x1BF JUMPI PUSH0 DUP1 DUP6 DUP6 DUP5 DUP2 DUP2 LT PUSH2 0x16C JUMPI PUSH2 0x16B PUSH2 0x620 JUMP JUMPDEST JUMPDEST SWAP1 POP PUSH1 0x20 MUL ADD CALLDATALOAD DUP2 MSTORE PUSH1 0x20 ADD SWAP1 DUP2 MSTORE PUSH1 0x20 ADD PUSH0 KECCAK256 PUSH0 SWAP1 SLOAD SWAP1 PUSH2 0x100 EXP SWAP1 DIV PUSH1 0xFF AND DUP3 DUP3 DUP2 MLOAD DUP2 LT PUSH2 0x1A0 JUMPI PUSH2 0x19F PUSH2 0x620 JUMP JUMPDEST JUMPDEST PUSH1 0x20 MUL PUSH1 0x20 ADD ADD SWAP1 ISZERO ISZERO SWAP1 DUP2 ISZERO ISZERO DUP2 MSTORE POP POP DUP1 DUP1 PUSH1 0x1 ADD SWAP2 POP POP PUSH2 0x14C JUMP JUMPDEST POP SWAP3 SWAP2 POP POP JUMP JUMPDEST PUSH1 0x1 PUSH0 SWAP1 SLOAD SWAP1 PUSH2 0x100 EXP SWAP1 DIV PUSH20 0xFFFFFFFFFFFFFFFFFFFFFFFFFFFFFFFFFFFFFFFF AND PUSH20 0xFFFFFFFFFFFFFFFFFFFFFFFFFFFFFFFFFFFFFFFF AND CALLER PUSH20 0xFFFFFFFFFFFFFFFFFFFFFFFFFFFFFFFFFFFFFFFF AND EQ PUSH2 0x255 JUMPI PUSH1 0x40 MLOAD PUSH32 0x8C379A000000000000000000000000000000000000000000000000000000000 DUP2 MSTORE PUSH1 0x4 ADD PUSH2 0x24C SWAP1 PUSH2 0x6CD JUMP JUMPDEST PUSH1 0x40 MLOAD DUP1 SWAP2 SUB SWAP1 REVERT JUMPDEST PUSH0 JUMPDEST DUP3 DUP3 SWAP1 POP DUP2 LT ISZERO PUSH2 0x30D JUMPI PUSH0 DUP1 SHL DUP4 DUP4 DUP4 DUP2 DUP2 LT PUSH2 0x278 JUMPI PUSH2 0x277 PUSH2 0x620 JUMP JUMPDEST JUMPDEST SWAP1 POP PUSH1 0x20 MUL ADD CALLDATALOAD SUB PUSH2 0x2BF JUMPI PUSH1 0x40 MLOAD PUSH32 0x8C379A000000000000000000000000000000000000000000000000000000000 DUP2 MSTORE PUSH1 0x4 ADD PUSH2 0x2B6 SWAP1 PUSH2 0x735 JUMP JUMPDEST PUSH1 0x40 MLOAD DUP1 SWAP2 SUB SWAP1 REVERT JUMPDEST PUSH1 0x1 PUSH0 DUP1 DUP6 DUP6 DUP6 DUP2 DUP2 LT PUSH2 0x2D6 JUMPI PUSH2 0x2D5 PUSH2 0x620 JUMP JUMPDEST JUMPDEST SWAP1 POP PUSH1 0x20 MUL ADD CALLDATALOAD DUP2 MSTORE PUSH1 0x20 ADD SWAP1 DUP2 MSTORE PUSH1 0x20 ADD PUSH0 KECCAK256 PUSH0 PUSH2 0x100 EXP DUP2 SLOAD DUP2 PUSH1 0xFF MUL NOT AND SWAP1 DUP4 ISZERO ISZERO MUL OR SWAP1 SSTORE POP DUP1 DUP1 PUSH1 0x1 ADD SWAP2 POP POP PUSH2 0x257 JUMP JUMPDEST POP PUSH32 0xBCBFF8A2484C88BD886C3B1AC9E60491264E92CD49C8BCB69C790C401CE70240 DUP3 DUP3 TIMESTAMP PUSH1 0x40 MLOAD PUSH2 0x341 SWAP4 SWAP3 SWAP2 SWAP1 PUSH2 0x7E3 JUMP JUMPDEST PUSH1 0x40 MLOAD DUP1 SWAP2 SUB SWAP1 LOG1 POP POP JUMP JUMPDEST PUSH0 DUP1 PUSH0 DUP4 DUP2 MSTORE PUSH1 0x20 ADD SWAP1 DUP2 MSTORE PUSH1 0x20 ADD PUSH0 KECCAK256 PUSH0 SWAP1 SLOAD SWAP1 PUSH2 0x100 EXP SWAP1 DIV PUSH1 0xFF AND SWAP1 POP SWAP2 SWAP1 POP JUMP JUMPDEST PUSH0 DUP1 PUSH0 DUP1 DUP5 DUP2 MSTORE PUSH1 0x20 ADD SWAP1 DUP2 MSTORE PUSH1 0x20 ADD PUSH0 KECCAK256 PUSH0 SWAP1 SLOAD SWAP1 PUSH2 0x100 EXP SWAP1 DIV PUSH1 0xFF AND SWAP1 POP PUSH32 0x855E1668A1DF7EF6FC47D3D47C0B426E04A1F82A0E918815F04CFCA4C15566D1 DUP4 DUP3 TIMESTAMP PUSH1 0x40 MLOAD PUSH2 0x3C6 SWAP4 SWAP3 SWAP2 SWAP1 PUSH2 0x822 JUMP JUMPDEST PUSH1 0x40 MLOAD DUP1 SWAP2 SUB SWAP1 LOG1 DUP1 SWAP2 POP POP SWAP2 SWAP1 POP JUMP JUMPDEST PUSH0 DUP1 REVERT JUMPDEST PUSH0 DUP1 REVERT JUMPDEST PUSH0 DUP1 REVERT JUMPDEST PUSH0 DUP1 REVERT JUMPDEST PUSH0 DUP1 REVERT JUMPDEST PUSH0 DUP1 DUP4 PUSH1 0x1F DUP5 ADD SLT PUSH2 0x400 JUMPI PUSH2 0x3FF PUSH2 0x3DF JUMP JUMPDEST JUMPDEST DUP3 CALLDATALOAD SWAP1 POP PUSH8 0xFFFFFFFFFFFFFFFF DUP2 GT ISZERO PUSH2 0x41D JUMPI PUSH2 0x41C PUSH2 0x3E3 JUMP JUMPDEST JUMPDEST PUSH1 0x20 DUP4 ADD SWAP2 POP DUP4 PUSH1 0x20 DUP3 MUL DUP4 ADD GT ISZERO PUSH2 0x439 JUMPI PUSH2 0x438 PUSH2 0x3E7 JUMP JUMPDEST JUMPDEST SWAP3 POP SWAP3 SWAP1 POP JUMP JUMPDEST PUSH0 DUP1 PUSH1 0x20 DUP4 DUP6 SUB SLT ISZERO PUSH2 0x456 JUMPI PUSH2 0x455 PUSH2 0x3D7 JUMP JUMPDEST JUMPDEST PUSH0 DUP4 ADD CALLDATALOAD PUSH8 0xFFFFFFFFFFFFFFFF DUP2 GT ISZERO PUSH2 0x473 JUMPI PUSH2 0x472 PUSH2 0x3DB JUMP JUMPDEST JUMPDEST PUSH2 0x47F DUP6 DUP3 DUP7 ADD PUSH2 0x3EB JUMP JUMPDEST SWAP3 POP SWAP3 POP POP SWAP3 POP SWAP3 SWAP1 POP JUMP JUMPDEST PUSH0 DUP2 MLOAD SWAP1 POP SWAP2 SWAP1 POP JUMP JUMPDEST PUSH0 DUP3 DUP3 MSTORE PUSH1 0x20 DUP3 ADD SWAP1 POP SWAP3 SWAP2 POP POP JUMP JUMPDEST PUSH0 DUP2 SWAP1 POP PUSH1 0x20 DUP3 ADD SWAP1 POP SWAP2 SWAP1 POP JUMP JUMPDEST PUSH0 DUP2 ISZERO ISZERO SWAP1 POP SWAP2 SWAP1 POP JUMP JUMPDEST PUSH2 0x4C8 DUP2 PUSH2 0x4B4 JUMP JUMPDEST DUP3 MSTORE POP POP JUMP JUMPDEST PUSH0 PUSH2 0x4D9 DUP4 DUP4 PUSH2 0x4BF JUMP JUMPDEST PUSH1 0x20 DUP4 ADD SWAP1 POP SWAP3 SWAP2 POP POP JUMP JUMPDEST PUSH0 PUSH1 0x20 DUP3 ADD SWAP1 POP SWAP2 SWAP1 POP JUMP JUMPDEST PUSH0 PUSH2 0x4FB DUP3 PUSH2 0x48B JUMP JUMPDEST PUSH2 0x505 DUP2 DUP6 PUSH2 0x495 JUMP JUMPDEST SWAP4 POP PUSH2 0x510 DUP4 PUSH2 0x4A5 JUMP JUMPDEST DUP1 PUSH0 JUMPDEST DUP4 DUP2 LT ISZERO PUSH2 0x540 JUMPI DUP2 MLOAD PUSH2 0x527 DUP9 DUP3 PUSH2 0x4CE JUMP JUMPDEST SWAP8 POP PUSH2 0x532 DUP4 PUSH2 0x4E5 JUMP JUMPDEST SWAP3 POP POP PUSH1 0x1 DUP2 ADD SWAP1 POP PUSH2 0x513 JUMP JUMPDEST POP DUP6 SWAP4 POP POP POP POP SWAP3 SWAP2 POP POP JUMP JUMPDEST PUSH0 PUSH1 0x20 DUP3 ADD SWAP1 POP DUP2 DUP2 SUB PUSH0 DUP4 ADD MSTORE PUSH2 0x565 DUP2 DUP5 PUSH2 0x4F1 JUMP JUMPDEST SWAP1 POP SWAP3 SWAP2 POP POP JUMP JUMPDEST PUSH0 DUP2 SWAP1 POP SWAP2 SWAP1 POP JUMP JUMPDEST PUSH2 0x57F DUP2 PUSH2 0x56D JUMP JUMPDEST DUP2 EQ PUSH2 0x589 JUMPI PUSH0 DUP1 REVERT JUMPDEST POP JUMP JUMPDEST PUSH0 DUP2 CALLDATALOAD SWAP1 POP PUSH2 0x59A DUP2 PUSH2 0x576 JUMP JUMPDEST SWAP3 SWAP2 POP POP JUMP JUMPDEST PUSH0 PUSH1 0x20 DUP3 DUP5 SUB SLT ISZERO PUSH2 0x5B5 JUMPI PUSH2 0x5B4 PUSH2 0x3D7 JUMP JUMPDEST JUMPDEST PUSH0 PUSH2 0x5C2 DUP5 DUP3 DUP6 ADD PUSH2 0x58C JUMP JUMPDEST SWAP2 POP POP SWAP3 SWAP2 POP POP JUMP JUMPDEST PUSH2 0x5D4 DUP2 PUSH2 0x4B4 JUMP JUMPDEST DUP3 MSTORE POP POP JUMP JUMPDEST PUSH0 PUSH1 0x20 DUP3 ADD SWAP1 POP PUSH2 0x5ED PUSH0 DUP4 ADD DUP5 PUSH2 0x5CB JUMP JUMPDEST SWAP3 SWAP2 POP POP JUMP JUMPDEST PUSH32 0x4E487B7100000000000000000000000000000000000000000000000000000000 PUSH0 MSTORE PUSH1 0x41 PUSH1 0x4 MSTORE PUSH1 0x24 PUSH0 REVERT JUMPDEST PUSH32 0x4E487B7100000000000000000000000000000000000000000000000000000000 PUSH0 MSTORE PUSH1 0x32 PUSH1 0x4 MSTORE PUSH1 0x24 PUSH0 REVERT JUMPDEST PUSH0 DUP3 DUP3 MSTORE PUSH1 0x20 DUP3 ADD SWAP1 POP SWAP3 SWAP2 POP POP JUMP JUMPDEST PUSH32 0x4F6E6C7920746865206F7267616E697A65722063616E20706572666F726D2074 PUSH0 DUP3 ADD MSTORE PUSH32 0x68697320616374696F6E00000000000000000000000000000000000000000000 PUSH1 0x20 DUP3 ADD MSTORE POP JUMP JUMPDEST PUSH0 PUSH2 0x6B7 PUSH1 0x2A DUP4 PUSH2 0x64D JUMP JUMPDEST SWAP2 POP PUSH2 0x6C2 DUP3 PUSH2 0x65D JUMP JUMPDEST PUSH1 0x40 DUP3 ADD SWAP1 POP SWAP2 SWAP1 POP JUMP JUMPDEST PUSH0 PUSH1 0x20 DUP3 ADD SWAP1 POP DUP2 DUP2 SUB PUSH0 DUP4 ADD MSTORE PUSH2 0x6E4 DUP2 PUSH2 0x6AB JUMP JUMPDEST SWAP1 POP SWAP2 SWAP1 POP JUMP JUMPDEST PUSH32 0x496E76616C696420646F63756D656E7420686173680000000000000000000000 PUSH0 DUP3 ADD MSTORE POP JUMP JUMPDEST PUSH0 PUSH2 0x71F PUSH1 0x15 DUP4 PUSH2 0x64D JUMP JUMPDEST SWAP2 POP PUSH2 0x72A DUP3 PUSH2 0x6EB JUMP JUMPDEST PUSH1 0x20 DUP3 ADD SWAP1 POP SWAP2 SWAP1 POP JUMP JUMPDEST PUSH0 PUSH1 0x20 DUP3 ADD SWAP1 POP DUP2 DUP2 SUB PUSH0 DUP4 ADD MSTORE PUSH2 0x74C DUP2 PUSH2 0x713 JUMP JUMPDEST SWAP1 POP SWAP2 SWAP1 POP JUMP JUMPDEST PUSH0 DUP3 DUP3 MSTORE PUSH1 0x20 DUP3 ADD SWAP1 POP SWAP3 SWAP2 POP POP JUMP JUMPDEST PUSH0 DUP1 REVERT JUMPDEST DUP3 DUP2 DUP4 CALLDATACOPY POP POP POP JUMP JUMPDEST PUSH0 PUSH2 0x77B DUP4 DUP6 PUSH2 0x753 JUMP JUMPDEST SWAP4 POP PUSH32 0x7FFFFFFFFFFFFFFFFFFFFFFFFFFFFFFFFFFFFFFFFFFFFFFFFFFFFFFFFFFFFFF DUP4 GT ISZERO PUSH2 0x7AE JUMPI PUSH2 0x7AD PUSH2 0x763 JUMP JUMPDEST JUMPDEST PUSH1 0x20 DUP4 MUL SWAP3 POP PUSH2 0x7BF DUP4 DUP6 DUP5 PUSH2 0x767 JUMP JUMPDEST DUP3 DUP5 ADD SWAP1 POP SWAP4 SWAP3 POP POP POP JUMP JUMPDEST PUSH0 DUP2 SWAP1 POP SWAP2 SWAP1 POP JUMP JUMPDEST PUSH2 0x7DD DUP2 PUSH2 0x7CB JUMP JUMPDEST DUP3 MSTORE POP POP JUMP JUMPDEST PUSH0 PUSH1 0x40 DUP3 ADD SWAP1 POP DUP2 DUP2 SUB PUSH0 DUP4 ADD MSTORE PUSH2 0x7FC DUP2 DUP6 DUP8 PUSH2 0x770 JUMP JUMPDEST SWAP1 POP PUSH2 0x80B PUSH1 0x20 DUP4 ADD DUP5 PUSH2 0x7D4 JUMP JUMPDEST SWAP5 SWAP4 POP POP POP POP JUMP JUMPDEST PUSH2 0x81C DUP2 PUSH2 0x56D JUMP JUMPDEST DUP3 MSTORE POP POP JUMP JUMPDEST PUSH0 PUSH1 0x60 DUP3 ADD SWAP1 POP PUSH2 0x835 PUSH0 DUP4 ADD DUP7 PUSH2 0x813 JUMP JUMPDEST PUSH2 0x842 PUSH1 0x20 DUP4 ADD DUP6 PUSH2 0x5CB JUMP JUMPDEST PUSH2 0x84F PUSH1 0x40 DUP4 ADD DUP5 PUSH2 0x7D4 JUMP JUMPDEST SWAP5 SWAP4 POP POP POP POP JUMP INVALID LOG2 PUSH5 0x6970667358 0x22 SLT KECCAK256 KECCAK256 DUP10 POP PUSH21 0x2BFA99444BA2805C39A88C7D9AC45D288592EC7365 EQ 0x1E 0xDB 0xB0 0xD2 INVALID PUSH11 0x64736F6C634300081A0033 "
		},
		"gasEstimates": {
			"creation": {
				"codeDepositCost": "437800",
				"executionCost": "472",
				"totalCost": "438272"
			},
			"external": {
				"addDocuments(bytes32[])": "infinite",
				"checkHash(bytes32)": "2832",
				"verifyHash(bytes32)": "infinite",
				"verifyHashes(bytes32[])": "infinite"
			}
		},
		"methodIdentifiers": {
			"addDocuments(bytes32[])": "cff3a6b3",
			"checkHash(bytes32)": "d604d8d1",
			"verifyHash(bytes32)": "ef020f4a",
			"verifyHashes(bytes32[])": "017cc8cb"
		}
	},
	"abi": [
		{
			"anonymous": false,
			"inputs": [
				{
					"indexed": false,
					"internalType": "bytes32",
					"name": "hash",
					"type": "bytes32"
				},
				{
					"indexed": false,
					"internalType": "bool",
					"name": "exists",
					"type": "bool"
				},
				{
					"indexed": false,
					"internalType": "uint256",
					"name": "timestamp",
					"type": "uint256"
				}
			],
			"name": "DocumentVerified",
			"type": "event"
		},
		{
			"anonymous": false,
			"inputs": [
				{
					"indexed": false,
					"internalType": "bytes32[]",
					"name": "hashes",
					"type": "bytes32[]"
				},
				{
					"indexed": false,
					"internalType": "uint256",
					"name": "timestamp",
					"type": "uint256"
				}
			],
			"name": "DocumentsAdded",
			"type": "event"
		},
		{
			"inputs": [
				{
					"internalType": "bytes32[]",
					"name": "hashes",
					"type": "bytes32[]"
				}
			],
			"name": "addDocuments",
			"outputs": [],
			"stateMutability": "nonpayable",
			"type": "function"
		},
		{
			"inputs": [
				{
					"internalType": "bytes32",
					"name": "hash",
					"type": "bytes32"
				}
			],
			"name": "checkHash",
			"outputs": [
				{
					"internalType": "bool",
					"name": "",
					"type": "bool"
				}
			],
			"stateMutability": "view",
			"type": "function"
		},
		{
			"inputs": [
				{
					"internalType": "bytes32",
					"name": "hash",
					"type": "bytes32"
				}
			],
			"name": "verifyHash",
			"outputs": [
				{
					"internalType": "bool",
					"name": "",
					"type": "bool"
				}
			],
			"stateMutability": "nonpayable",
			"type": "function"
		},
		{
			"inputs": [
				{
					"internalType": "bytes32[]",
					"name": "hashes",
					"type": "bytes32[]"
				}
			],
			"name": "verifyHashes",
			"outputs": [
				{
					"internalType": "bool[]",
					"name": "results",
					"type": "bool[]"
				}
			],
			"stateMutability": "view",
			"type": "function"
		}
	]
}